{
  "contractName": "RestaurantVote",
  "abi": [
    {
      "inputs": [],
      "payable": false,
      "stateMutability": "nonpayable",
      "type": "constructor"
    },
    {
      "constant": true,
      "inputs": [
        {
          "name": "addr",
          "type": "address"
        }
      ],
      "name": "iscustomerOn",
      "outputs": [
        {
          "name": "",
          "type": "bool"
        }
      ],
      "payable": false,
      "stateMutability": "view",
      "type": "function"
    },
    {
      "constant": true,
      "inputs": [
        {
          "name": "name",
          "type": "bytes32"
        }
      ],
      "name": "isrestaurantOn",
      "outputs": [
        {
          "name": "",
          "type": "bool"
        }
      ],
      "payable": false,
      "stateMutability": "view",
      "type": "function"
    },
    {
      "constant": true,
      "inputs": [
        {
          "name": "addr",
          "type": "address"
        }
      ],
      "name": "Findcustomer",
      "outputs": [
        {
          "name": "",
          "type": "uint256"
        }
      ],
      "payable": false,
      "stateMutability": "view",
      "type": "function"
    },
    {
      "constant": true,
      "inputs": [
        {
          "name": "name",
          "type": "bytes32"
        }
      ],
      "name": "FindRestaurant",
      "outputs": [
        {
          "name": "",
          "type": "uint256"
        }
      ],
      "payable": false,
      "stateMutability": "view",
      "type": "function"
    },
    {
      "constant": true,
      "inputs": [
        {
          "name": "name",
          "type": "bytes32"
        },
        {
          "name": "addr",
          "type": "address"
        }
      ],
      "name": "isCustomerOnThisRestaurant",
      "outputs": [
        {
          "name": "",
          "type": "bool"
        }
      ],
      "payable": false,
      "stateMutability": "view",
      "type": "function"
    },
    {
      "constant": false,
      "inputs": [
        {
          "name": "_name",
          "type": "bytes32"
        }
      ],
      "name": "setcustomer",
      "outputs": [
        {
          "name": "",
          "type": "uint256"
        }
      ],
      "payable": false,
      "stateMutability": "nonpayable",
      "type": "function"
    },
    {
      "constant": false,
      "inputs": [
        {
          "name": "_name",
          "type": "bytes32"
        }
      ],
      "name": "setrestaurant",
      "outputs": [
        {
          "name": "",
          "type": "bool"
        }
      ],
      "payable": false,
      "stateMutability": "nonpayable",
      "type": "function"
    },
    {
      "constant": false,
      "inputs": [
        {
          "name": "mark",
          "type": "uint256"
        },
        {
          "name": "name",
          "type": "bytes32"
        },
        {
          "name": "gmd_mark",
          "type": "uint256"
        }
      ],
      "name": "vote",
      "outputs": [
        {
          "name": "",
          "type": "bool"
        }
      ],
      "payable": false,
      "stateMutability": "nonpayable",
      "type": "function"
    },
    {
      "constant": true,
      "inputs": [],
      "name": "getcustomerId",
      "outputs": [
        {
          "name": "",
          "type": "uint256"
        }
      ],
      "payable": false,
      "stateMutability": "view",
      "type": "function"
    },
    {
      "constant": true,
      "inputs": [],
      "name": "getcustomerName",
      "outputs": [
        {
          "name": "",
          "type": "bytes32"
        }
      ],
      "payable": false,
      "stateMutability": "view",
      "type": "function"
    },
    {
      "constant": true,
      "inputs": [],
      "name": "getcustomerAddr",
      "outputs": [
        {
          "name": "",
          "type": "address"
        }
      ],
      "payable": false,
      "stateMutability": "view",
      "type": "function"
    },
    {
      "constant": true,
      "inputs": [
        {
          "name": "name",
          "type": "bytes32"
        }
      ],
      "name": "getRestaurantMark",
      "outputs": [
        {
          "name": "",
          "type": "uint256"
        }
      ],
      "payable": false,
      "stateMutability": "view",
      "type": "function"
    },
    {
      "constant": true,
      "inputs": [
        {
          "name": "name",
          "type": "bytes32"
        }
      ],
      "name": "getRestaurantGoodMark",
      "outputs": [
        {
          "name": "",
          "type": "uint256"
        }
      ],
      "payable": false,
      "stateMutability": "view",
      "type": "function"
    },
    {
      "constant": true,
      "inputs": [
        {
          "name": "name",
          "type": "bytes32"
        }
      ],
      "name": "getRestaurantMiddleMark",
      "outputs": [
        {
          "name": "",
          "type": "uint256"
        }
      ],
      "payable": false,
      "stateMutability": "view",
      "type": "function"
    },
    {
      "constant": true,
      "inputs": [
        {
          "name": "name",
          "type": "bytes32"
        }
      ],
      "name": "getRestaurantBadMark",
      "outputs": [
        {
          "name": "",
          "type": "uint256"
        }
      ],
      "payable": false,
      "stateMutability": "view",
      "type": "function"
    },
    {
      "constant": true,
      "inputs": [
        {
          "name": "name",
          "type": "bytes32"
        }
      ],
      "name": "getRestaurantcustomerNumber",
      "outputs": [
        {
          "name": "",
          "type": "uint256"
        }
      ],
      "payable": false,
      "stateMutability": "view",
      "type": "function"
    },
    {
      "constant": true,
      "inputs": [
        {
          "name": "name",
          "type": "bytes32"
        },
        {
          "name": "x",
          "type": "uint256"
        }
      ],
      "name": "getRestaurantcustomerName",
      "outputs": [
        {
          "name": "",
          "type": "bytes32"
        }
      ],
      "payable": false,
      "stateMutability": "view",
      "type": "function"
    },
    {
      "constant": true,
      "inputs": [
        {
          "name": "name",
          "type": "bytes32"
        },
        {
          "name": "x",
          "type": "uint256"
        }
      ],
      "name": "getRestaurantcustomerMark",
      "outputs": [
        {
          "name": "",
          "type": "uint256"
        }
      ],
      "payable": false,
      "stateMutability": "view",
      "type": "function"
    },
    {
      "constant": true,
      "inputs": [],
      "name": "getRestaurantNumber",
      "outputs": [
        {
          "name": "",
          "type": "uint256"
        }
      ],
      "payable": false,
      "stateMutability": "view",
      "type": "function"
    },
    {
      "constant": true,
      "inputs": [],
      "name": "getcustomerNumber",
      "outputs": [
        {
          "name": "",
          "type": "uint256"
        }
      ],
      "payable": false,
      "stateMutability": "view",
      "type": "function"
    }
  ],
  "bytecode": "0x608060405234801561001057600080fd5b506000600281905550600060038190555061105b806100306000396000f300608060405260043610610112576000357c0100000000000000000000000000000000000000000000000000000000900463ffffffff16806301962cc6146101175780632ba614c61461015c5780632ca03523146101b35780632f5edecd146102025780633d029a6414610235578063416d10711461028c5780634a8c729f146102d15780635073d283146102fc5780635a3b4d53146103415780636fbb30d21461039e5780638faf47c9146103e357806397370c541461042c578063a165b4f314610475578063a3f136ee146104ba578063af35c11314610523578063b1e2feda1461057e578063dc9017e5146105a9578063ea8705b5146105ee578063eac7167914610619578063f3f39dcc14610670575b600080fd5b34801561012357600080fd5b5061014660048036038101908080356000191690602001909291905050506106b5565b6040518082815260200191505060405180910390f35b34801561016857600080fd5b506101716106e1565b604051808273ffffffffffffffffffffffffffffffffffffffff1673ffffffffffffffffffffffffffffffffffffffff16815260200191505060405180910390f35b3480156101bf57600080fd5b506101ec60048036038101908080356000191690602001909291908035906020019092919050505061072c565b6040518082815260200191505060405180910390f35b34801561020e57600080fd5b506102176107dc565b60405180826000191660001916815260200191505060405180910390f35b34801561024157600080fd5b5061026e600480360381019080803560001916906020019092919080359060200190929190505050610807565b60405180826000191660001916815260200191505060405180910390f35b34801561029857600080fd5b506102bb6004803603810190808035600019169060200190929190505050610891565b6040518082815260200191505060405180910390f35b3480156102dd57600080fd5b506102e66108a8565b6040518082815260200191505060405180910390f35b34801561030857600080fd5b5061032b60048036038101908080356000191690602001909291905050506108b2565b6040518082815260200191505060405180910390f35b34801561034d57600080fd5b50610384600480360381019080803590602001909291908035600019169060200190929190803590602001909291905050506108de565b604051808215151515815260200191505060405180910390f35b3480156103aa57600080fd5b506103cd6004803603810190808035600019169060200190929190505050610b18565b6040518082815260200191505060405180910390f35b3480156103ef57600080fd5b506104126004803603810190808035600019169060200190929190505050610b44565b604051808215151515815260200191505060405180910390f35b34801561043857600080fd5b5061045b6004803603810190808035600019169060200190929190505050610b9c565b604051808215151515815260200191505060405180910390f35b34801561048157600080fd5b506104a46004803603810190808035600019169060200190929190505050610c82565b6040518082815260200191505060405180910390f35b3480156104c657600080fd5b506105096004803603810190808035600019169060200190929190803573ffffffffffffffffffffffffffffffffffffffff169060200190929190505050610cae565b604051808215151515815260200191505060405180910390f35b34801561052f57600080fd5b50610564600480360381019080803573ffffffffffffffffffffffffffffffffffffffff169060200190929190505050610d7d565b604051808215151515815260200191505060405180910390f35b34801561058a57600080fd5b50610593610e1a565b6040518082815260200191505060405180910390f35b3480156105b557600080fd5b506105d86004803603810190808035600019169060200190929190505050610e24565b6040518082815260200191505060405180910390f35b3480156105fa57600080fd5b50610603610e77565b6040518082815260200191505060405180910390f35b34801561062557600080fd5b5061065a600480360381019080803573ffffffffffffffffffffffffffffffffffffffff169060200190929190505050610ea2565b6040518082815260200191505060405180910390f35b34801561067c57600080fd5b5061069f6004803603810190808035600019169060200190929190505050610f3a565b6040518082815260200191505060405180910390f35b6000806106c183610e24565b905060008082815260200190815260200160002060050154915050919050565b6000806106ed33610ea2565b90506001600082815260200190815260200160002060000160009054906101000a900473ffffffffffffffffffffffffffffffffffffffff1691505090565b60008061073884610e24565b90506000808281526020019081526020016000206006016000806000848152602001908152602001600020600701600086815260200190815260200160002060009054906101000a900473ffffffffffffffffffffffffffffffffffffffff1673ffffffffffffffffffffffffffffffffffffffff1673ffffffffffffffffffffffffffffffffffffffff1681526020019081526020016000205491505092915050565b6000806107e833610ea2565b9050600160008281526020019081526020016000206001015491505090565b60008060008061081686610e24565b9250600080848152602001908152602001600020600701600086815260200190815260200160002060009054906101000a900473ffffffffffffffffffffffffffffffffffffffff16915061086a82610ea2565b92506001600084815260200190815260200160002060010154905080935050505092915050565b60008061089d83610f66565b905080915050919050565b6000600254905090565b6000806108be83610e24565b905060008082815260200190815260200160002060010154915050919050565b60008060008060035414156108f65760009250610b0f565b6108ff85610e24565b915061090b8533610cae565b156109195760009250610b0f565b600084141561094c57600080838152602001908152602001600020600501600081548092919060010191905055506109a6565b600184141561097f57600080838152602001908152602001600020600401600081548092919060010191905055506109a5565b600080838152602001908152602001600020600301600081548092919060010191905055505b5b85600080848152602001908152602001600020600201546000808581526020019081526020016000206001015402019050600080838152602001908152602001600020600201600081548092919060010191905055506000808381526020019081526020016000206002015481811515610a1c57fe5b04600080848152602001908152602001600020600101819055508560008084815260200190815260200160002060060160003373ffffffffffffffffffffffffffffffffffffffff1673ffffffffffffffffffffffffffffffffffffffff1681526020019081526020016000208190555033600080848152602001908152602001600020600701600060016000808781526020019081526020016000206002015403815260200190815260200160002060006101000a81548173ffffffffffffffffffffffffffffffffffffffff021916908373ffffffffffffffffffffffffffffffffffffffff160217905550600192505b50509392505050565b600080610b2483610e24565b905060008082815260200190815260200160002060020154915050919050565b600080600090505b600354811015610b9157826000191660008083815260200190815260200160002060000154600019161415610b845760019150610b96565b8080600101915050610b4c565b600091505b50919050565b6000610ba782610b44565b15610bb55760009050610c7d565b816000806003548152602001908152602001600020600001816000191690555060008060006003548152602001908152602001600020600101819055506000806000600354815260200190815260200160002060030181905550600080600060035481526020019081526020016000206004018190555060008060006003548152602001908152602001600020600501819055506000806000600354815260200190815260200160002060020181905550600360008154809291906001019190505550600190505b919050565b600080610c8e83610e24565b905060008082815260200190815260200160002060040154915050919050565b6000806000610cbc85610e24565b9150600090505b60008083815260200190815260200160002060020154811015610d70578373ffffffffffffffffffffffffffffffffffffffff16600080848152602001908152602001600020600701600083815260200190815260200160002060009054906101000a900473ffffffffffffffffffffffffffffffffffffffff1673ffffffffffffffffffffffffffffffffffffffff161415610d635760019250610d75565b8080600101915050610cc3565b600092505b505092915050565b600080600090505b600254811015610e0f578273ffffffffffffffffffffffffffffffffffffffff166001600083815260200190815260200160002060000160009054906101000a900473ffffffffffffffffffffffffffffffffffffffff1673ffffffffffffffffffffffffffffffffffffffff161415610e025760019150610e14565b8080600101915050610d85565b600091505b50919050565b6000600354905090565b600080600090505b600354811015610e7057826000191660008083815260200190815260200160002060000154600019161415610e6357809150610e71565b8080600101915050610e2c565b5b50919050565b600080610e8333610ea2565b9050600160008281526020019081526020016000206002015491505090565b600080600090505b600254811015610f33578273ffffffffffffffffffffffffffffffffffffffff166001600083815260200190815260200160002060000160009054906101000a900473ffffffffffffffffffffffffffffffffffffffff1673ffffffffffffffffffffffffffffffffffffffff161415610f2657809150610f34565b8080600101915050610eaa565b5b50919050565b600080610f4683610e24565b905060008082815260200190815260200160002060030154915050919050565b60006001600254016002819055506060604051908101604052803373ffffffffffffffffffffffffffffffffffffffff1681526020018360001916815260200160025481525060016000600254815260200190815260200160002060008201518160000160006101000a81548173ffffffffffffffffffffffffffffffffffffffff021916908373ffffffffffffffffffffffffffffffffffffffff160217905550602082015181600101906000191690556040820151816002015590505060025490509190505600a165627a7a72305820116a287ebb9eed551224b7259fe7804ae0d4e9372b7db4fdac7b165aff96bebe0029",
  "source": "pragma solidity ^0.4.17;\r\ncontract RestaurantVote {\r\n    //Restaurant\r\n    struct restaurant {\r\n        bytes32 name;\r\n        uint mark;\r\n        uint customers_number;\r\n        uint good_mark;\r\n        uint middle_mark;\r\n        uint bad_mark;\r\n        mapping(address=>uint) customer_mark;\r\n        mapping(uint=>address) customer_exit;\r\n    }\r\n    \r\n    //customer\r\n    struct customer {\r\n        address addr;\r\n        bytes32 name;\r\n        uint id;\r\n    }\r\n    \r\n    mapping(uint=>restaurant) restaurants;\r\n    mapping(uint=>customer) customers;\r\n    uint customers_number;\r\n    uint restaurants_number;\r\n    \r\n    //init\r\n    constructor() public{\r\n        customers_number = 0;\r\n        restaurants_number = 0;\r\n    }\r\n    \r\n    //judge customer exits\r\n    function iscustomerOn(address addr) view public returns(bool) {\r\n        for(uint i = 0; i < customers_number; i++) {\r\n            if (customers[i].addr == addr) {return true;}\r\n        }\r\n        return false;\r\n    }\r\n    \r\n    //judge restaurant exits\r\n    function isrestaurantOn(bytes32 name) view public returns(bool) {\r\n        for (uint i = 0; i < restaurants_number; i++) {\r\n            if (restaurants[i].name == name) { return true; }\r\n        }\r\n        return false;\r\n    }\r\n    \r\n    //find customer\r\n    function Findcustomer(address addr) view public returns(uint) {\r\n        for (uint i = 0; i < customers_number; i++) {\r\n            if (customers[i].addr == addr) { return i; }\r\n        }\r\n    }\r\n    \r\n    //find restaurant\r\n    function FindRestaurant(bytes32 name) view public returns(uint) {\r\n        for (uint i = 0; i < restaurants_number; i++) {\r\n            if (restaurants[i].name == name) { return i;}\r\n        }\r\n    }\r\n    \r\n    //judge restaurant has this customer\r\n    function isCustomerOnThisRestaurant(bytes32 name, address addr) view public returns(bool) {\r\n        uint pos = FindRestaurant(name);\r\n        for (uint i = 0; i < restaurants[pos].customers_number; i++) {\r\n            if (restaurants[pos].customer_exit[i] == addr) { return true; }\r\n        }\r\n        return false;\r\n    }\r\n    \r\n    //create customer\r\n    function setcustomer(bytes32 _name) public returns(uint){\r\n        // if (iscustomerOn(msg.sender)) return false;\r\n        // customers_number = customers_number + 1;\r\n        // customers[customers_number] = customer(msg.sender, _name, customers_number);\r\n        // return customers_number;\r\n        uint a = sc(_name);\r\n        return a;\r\n    }\r\n\r\n    function sc(bytes32 _name) internal returns(uint){\r\n        customers_number = customers_number + 1;\r\n        customers[customers_number] = customer(msg.sender, _name, customers_number);\r\n        return customers_number;\r\n    }\r\n    \r\n    //create restaurant\r\n    function setrestaurant(bytes32 _name) public returns(bool){\r\n        if (isrestaurantOn(_name)) return false;\r\n        \r\n        restaurants[restaurants_number].name = _name;\r\n        restaurants[restaurants_number].mark = 0;\r\n        restaurants[restaurants_number].good_mark = 0;\r\n        restaurants[restaurants_number].middle_mark = 0;\r\n        restaurants[restaurants_number].bad_mark = 0;\r\n        restaurants[restaurants_number].customers_number = 0;\r\n        restaurants_number++;\r\n        return true;\r\n    }\r\n    \r\n    //vote\r\n    function vote(uint mark, bytes32 name, uint gmd_mark) public returns(bool){\r\n        uint pos;\r\n        \r\n        if (restaurants_number == 0) return false;\r\n        pos = FindRestaurant(name);\r\n        \r\n        if(isCustomerOnThisRestaurant(name, msg.sender)) return false;\r\n        \r\n        if (gmd_mark == 0) restaurants[pos].bad_mark++;\r\n        else if (gmd_mark == 1) restaurants[pos].middle_mark++;\r\n        else restaurants[pos].good_mark++;\r\n        \r\n        uint allmark = restaurants[pos].mark * restaurants[pos].customers_number + mark;\r\n        restaurants[pos].customers_number++;\r\n        restaurants[pos].mark = allmark / restaurants[pos].customers_number;\r\n        restaurants[pos].customer_mark[msg.sender] = mark;\r\n        restaurants[pos].customer_exit[restaurants[pos].customers_number - 1] = msg.sender;\r\n        \r\n        return true;\r\n    }\r\n    \r\n    //                                 get from customer\r\n    //get customerid\r\n    function getcustomerId() view public returns(uint) {\r\n        uint pos = Findcustomer(msg.sender);\r\n        return customers[pos].id;\r\n    }\r\n    //get customername\r\n    function getcustomerName() view public returns(bytes32) {\r\n      uint pos = Findcustomer(msg.sender);\r\n        return customers[pos].name;\r\n    }\r\n    //get customeraddress\r\n    function getcustomerAddr() view public returns(address) {\r\n        uint pos = Findcustomer(msg.sender);\r\n        return customers[pos].addr;\r\n    }\r\n    //                                         end\r\n\r\n    \r\n    //                                  get from restaurant\r\n    //get restaurantmark\r\n    function getRestaurantMark(bytes32 name) view public returns(uint) {\r\n        uint pos = FindRestaurant(name);\r\n        return restaurants[pos].mark;\r\n    }\r\n    //get restaurantgoodmark\r\n    function getRestaurantGoodMark(bytes32 name) view public returns(uint) {\r\n        uint pos = FindRestaurant(name);\r\n        return restaurants[pos].good_mark;\r\n    }\r\n    //get restaurantmiddlemark\r\n    function getRestaurantMiddleMark(bytes32 name) view public returns(uint) {\r\n        uint pos = FindRestaurant(name);\r\n        return restaurants[pos].middle_mark;\r\n    }\r\n    //get restaurantbadmark\r\n    function getRestaurantBadMark(bytes32 name) view public returns(uint) {\r\n        uint pos = FindRestaurant(name);\r\n        return restaurants[pos].bad_mark;\r\n    }\r\n    //get restaurant's customer number\r\n    function getRestaurantcustomerNumber(bytes32 name) view public returns(uint) {\r\n        uint pos = FindRestaurant(name);\r\n        return restaurants[pos].customers_number;\r\n    }\r\n    //get customer's name in restaurant\r\n    function getRestaurantcustomerName(bytes32 name, uint x) view public returns(bytes32) {\r\n        uint pos;\r\n        pos = FindRestaurant(name);\r\n        address addr = restaurants[pos].customer_exit[x];\r\n        pos = Findcustomer(addr);\r\n        bytes32 customer_name = customers[pos].name;\r\n        return customer_name;\r\n    }\r\n    //get customer's mark in restaurant\r\n    function getRestaurantcustomerMark(bytes32 name, uint x) view public returns(uint) {\r\n        uint pos = FindRestaurant(name);\r\n        return restaurants[pos].customer_mark[restaurants[pos].customer_exit[x]];\r\n    }\r\n    //                                         end\r\n    \r\n    //                                  get from public\r\n    function getRestaurantNumber() view public returns(uint) {\r\n        return restaurants_number;\r\n    }\r\n    function getcustomerNumber() view public returns(uint) {\r\n        return customers_number;\r\n    }\r\n    //                                          end\r\n}",
  "sourcePath": "C:\\Users\\ASUS\\Desktop\\truffle\\myapp\\contracts\\RestaurantVote.sol",
  "compiler": {
    "name": "solc",
    "version": "0.4.24+commit.e67f0147.Emscripten.clang"
  },
  "schemaVersion": "2.0.1",
  "updatedAt": "2019-01-05T17:51:38.285Z"
}